:100000000C9452010C947A010C947A010C946A07B6
:100010000C946A070C946A070C947A010C947A0188
:100020000C947A010C947A010C947A010C947A0164
:100030000C947A010C947A010C947A010C947A0154
:100040000C9420070C947A010C94EE060C94C806CC
:100050000C947A010C947A010C947A010C947A0134
:100060000C947A010C947A01000000000000005FFB
:1000700000000007000700147F147F14242A7F2A41
:10008000122313086462364955225000050300000C
:10009000001C2241000041221C0014083E081408E4
:1000A000083E0808005030000008080808080060F2
:1000B00060000020100804023E5149453E00427F86
:1000C000400042615149462141454B311814127F8D
:1000D0001027454545393C4A494930017109050316
:1000E0003649494936064949291E0036360000007E
:1000F0005636000008142241001414141414004150
:100100002214080201510906324979413E7E11113B
:10011000117E7F494949363E414141227F4141227A
:100120001C7F494949417F090909013E4149497AF2
:100130007F0808087F00417F41002040413F017F48
:10014000081422417F404040407F020C027F7F0420
:1001500008107F3E4141413E7F090909063E415159
:10016000215E7F09192946464949493101017F012C
:10017000013F4040403F1F2040201F3F4038403F4C
:100180006314081463070870080761514945430068
:100190007F41410002040810200041417F00040219
:1001A0000102044040404040000102040020545439
:1001B00054787F48444438384444442038444448C0
:1001C0007F3854545418087E0901020C5252523E92
:1001D0007F0804047800447D40002040443D007FB7
:1001E0001028440000417F40007C041804787C08FB
:1001F00004047838444444387C1414140808141453
:10020000187C7C080404084854545420043F44409B
:10021000203C4040207C1C2040201C3C4030403C86
:1002200044281028440C5050503C4464544C440022
:100230000836410000007F00000041360800100829
:100240000810080000000000000000002400270043
:100250002A0000000000250028002B0000000000FC
:1002600023002600290004040404040404040202F8
:100270000202020203030303030301020408102025
:100280004080010204081020010204081020000030
:100290000008000201000003040700000000000045
:1002A0000000740711241FBECFEFD8E0DEBFCDBF22
:1002B00011E0A0E0B1E0E0E2F8E102C005900D92AB
:1002C000AE34B107D9F722E0AEE4B1E001C01D922F
:1002D000A434B207E1F711E0C2E5D1E004C02197F0
:1002E000FE010E94030CC135D107C9F70E94B30774
:1002F0000C940E0C0C940000DC01ED91FC9101902B
:10030000F081E02D0994CF92DF92EF92FF920F934C
:100310001F93CF93DF936C017A018B01C0E0D0E093
:10032000CE15DF0581F0D8016D918D01D601ED91DB
:10033000FC910190F081E02DC6010995892B11F007
:100340002196EECF7E01C701DF91CF911F910F91D2
:10035000FF90EF90DF90CF900895FC01538D448D76
:10036000252F30E0842F90E0821B930B541710F060
:10037000CF96089501970895FC01918D828D98176D
:1003800061F0828DDF01A80FB11D5D968C91928D79
:100390009F5F9F73928F90E008958FEF9FEF089576
:1003A000FC01918D828D981731F0828DE80FF11D3F
:1003B000858D90E008958FEF9FEF0895FC01918D5A
:1003C000228D892F90E0805C9F4F821B91098F7353
:1003D0009927089589E591E00E94DE0121E0892BAB
:1003E00009F420E0822F0895FC01848DDF01A80F1D
:1003F000B11DA35ABF4F2C91848D90E001968F734D
:100400009927848FA689B7892C93A089B1898C916B
:10041000837080648C93938D848D981306C00288BA
:10042000F389E02D80818F7D80830895EF92FF9284
:100430000F931F93CF93DF93EC0181E0888F9B8D07
:100440008C8D981305C0E889F989808185FD26C0C7
:10045000F62E0B8D10E00F5F1F4F0F731127E02E4C
:100460008C8DE8120CC00FB607FCFACFE889F98929
:10047000808185FFF5CFCE010E94F401F1CF8B8DF5
:10048000FE01E80FF11DE35AFF4FF0829FB7F89489
:100490000B8FEA89FB89808180620AC09FB7F8943C
:1004A000EE89FF896083E889F9898081837080649F
:1004B00080839FBF81E090E0DF91CF911F910F91EA
:1004C000FF90EF900895CF93DF93EC01888D882300
:1004D000C9F0EA89FB89808185FD05C0A889B989B1
:1004E0008C9186FD0FC00FB607FCF5CF808185FF8C
:1004F000F2CFA889B9898C9185FFEDCFCE010E94FA
:10050000F401E7CFDF91CF91089580E090E0892B4F
:1005100029F00E94EA0181110C94000008958330B3
:1005200081F028F4813099F08230A1F0089587306D
:10053000A9F08830B9F08430D1F4809180008F7DAB
:1005400003C0809180008F7780938000089584B5E8
:100550008F7702C084B58F7D84BD08958091B000EF
:100560008F7703C08091B0008F7D8093B000089595
:10057000CF93DF93E7E9F2E08491E3E8F2E0D491EE
:10058000EFE6F2E0C491CC2391F081110E948F023A
:10059000EC2FF0E0EE0FFF1FE45AFD4FA591B49150
:1005A000EC91ED2381E090E021F480E002C080E056
:1005B00090E0DF91CF9108951F93CF93DF93282F81
:1005C00030E0F901E257FD4F8491F901E658FD4F03
:1005D000D491F901EA59FD4FC491CC23C1F0162FF3
:1005E00081110E948F02EC2FF0E0EE0FFF1FEE5AF8
:1005F000FD4FA591B4919FB7F894111104C08C914F
:10060000D095D82302C0EC91DE2BDC939FBFDF9105
:10061000CF911F910895CF93DF9390E0FC01E658AE
:10062000FD4F2491FC01EA59FD4F8491882361F12B
:1006300090E0880F991FFC01E85BFD4FC591D491B4
:10064000FC01EE5AFD4FA591B491611109C09FB70D
:10065000F8948881209582238883EC912E230BC007
:10066000623061F49FB7F8948881322F30958323EC
:100670008883EC912E2B2C939FBF06C08FB7F894E4
:10068000E8812E2B28838FBFDF91CF9108958E3084
:1006900008F08E508770806480937C0080917A008F
:1006A000806480937A0080917A0086FDFCCF8091EF
:1006B0007800909179000895E82FF0E0E050FF4F26
:1006C00080810E944703BC01990F880B990B0E94FF
:1006D000920A20E030EC4FE754E40E94EF0920E05A
:1006E00030E040EA50E40E94470B20E030E040E276
:1006F00050E40E947D092DE938ED49E151E40E9462
:10070000470B08953FB7F894809155019091560199
:10071000A0915701B091580126B5A89B05C02F3F65
:1007200019F00196A11DB11D3FBFBA2FA92F982F17
:100730008827820F911DA11DB11DBC01CD0142E092
:10074000660F771F881F991F4A95D1F708958F92DA
:100750009F92AF92BF92CF92DF92EF92FF926B0186
:100760007C010E9482034B015C01C114D104E104AD
:10077000F104F1F00E948203DC01CB018819990990
:10078000AA09BB09883E9340A105B10570F321E099
:10079000C21AD108E108F10888EE880E83E0981E9D
:1007A000A11CB11CC114D104E104F10419F7DDCF7F
:1007B000FF90EF90DF90CF90BF90AF909F908F9081
:1007C0000895089580E090E008952F923F924F920F
:1007D0005F926F927F928F929F92AF92BF92CF92D1
:1007E000DF92EF92FF920F931F93CF93DF93CDB7DA
:1007F000DEB7C05BD4400FB6F894DEBF0FBECDBFEE
:100800008E010F5F1F4F4E019FE4891A9BEF990ADB
:10081000E82FF0E0E050FF4FD0808BEDE82EF12C78
:100820008D2D0E944703BC01990F880B990B0E94E4
:10083000920A20E030EC4FE754E40E94EF0920E0F8
:1008400030E040EA50E40E94470B20E030E040E214
:1008500050E40E947D092DE938ED49E151E40E9400
:10086000470BF80161937193819391938F01C701B5
:100870000197F1F7E815F90599F669807A800B81FF
:100880001C815E01F5E0AF0EB11C13012801F501DA
:10089000C190D190E190F1905F019301A801C7014F
:1008A000B6010E94EA0987FF02C036018701910163
:1008B000A201C701B6010E94420B181614F41601DA
:1008C0002701A814B90419F720E030E0A901B1010B
:1008D000C2010E94420B18163CF423EF34E045EBB2
:1008E0005FE3B101C2010FC020E030E0A901B10116
:1008F000C2010E94EA0987FF09C023EF34E045EBFB
:100900005FE3B301C8010E94EF0903C060E070E03B
:10091000CB01C055DB4F0FB6F894DEBF0FBECDBF85
:10092000DF91CF911F910F91FF90EF90DF90CF90CB
:10093000BF90AF909F908F907F906F905F904F90FF
:100940003F902F900895EF92FF920F931F93CF93B4
:10095000DF93EC01042F8E810E94DC0260E0888529
:100960000E94DC02FC80ED8018E0602F661F662785
:10097000661F8E2D0E94DC02000F61E08F2D0E9409
:10098000DC0260E08F2D0E94DC02115071F761E003
:100990008885DF91CF911F910F91FF90EF900C947C
:1009A000DC02CF93DF93C6EFD1E01C86282F30E026
:1009B0009B8569E3969F612D1124669570E06F5FBA
:1009C0007F4FC9010E94B90B8D8740E860E0CE01DE
:1009D0000E94A3044D85406460E0CE01DF91CF9179
:1009E0000C94A304CF93DF9380E00E94D104C0E075
:1009F000D0E09091000280910102869586958695BF
:100A0000989FC0011124C817D90740F440E061E065
:100A100086EF91E00E94A3042196EBCF80E0DF9166
:100A2000CF910C94D1040E94090C6115710579F0E5
:100A3000FB0101900020E9F73197AF01461B570BEE
:100A4000DC01ED91FC910280F381E02D099480E0BE
:100A500090E008958F929F92AF92BF92EF92FF9293
:100A60000F931F93CF93DF93CDB7DEB7A1970FB648
:100A7000F894DEBF0FBECDBF7C01FA01CB0119A2F5
:100A8000223008F42AE08E010F5D1F4F822E912C38
:100A9000A12CB12CBF01A50194010E94CD0BF9013D
:100AA000CA01015011096A3014F4605D01C0695C2B
:100AB000D8016C93232B242B252B61F7B801C70198
:100AC0000E941505A1960FB6F894DEBF0FBECDBFEC
:100AD000DF91CF911F910F91FF90EF90BF90AF905A
:100AE0009F908F9008957F928F929F92AF92BF9226
:100AF000CF92DF92EF92FF920F931F93CF93DF93EA
:100B00008C016A017B01722E9A01AB01C701B6010B
:100B10000E94B40B882319F062E271E027C04601FD
:100B20005701E894B7F82FEF3FEF4FE75FE7C501B4
:100B3000B4010E94B40B81110DC02FEF3FEF4FE7BE
:100B40005FE7C501B4010E94EA0918161CF466E2C9
:100B500071E00CC02FEF3FEF4FE75FE4C701B60134
:100B60000E94420B181694F46AE271E0C801DF910A
:100B7000CF911F910F91FF90EF90DF90CF90BF909A
:100B8000AF909F908F907F900C9415052FEF3FEFC3
:100B90004FE75FECC701B6010E94EA0987FDE4CF89
:100BA00020E030E0A901C701B6010E94EA0987FFF1
:100BB0000AC06DE2C8010E947C01EC01F7FAF094D2
:100BC000F7F8F09402C0C0E0D0E0B12C60E070E033
:100BD00080E09FE37B1441F020E030E040E251E40C
:100BE0000E94EF09B394F6CFA70196010E947E09F7
:100BF0006B017C010E94610A4B015C012AE0AB01A0
:100C0000BC01C8010E942A05C80FD91F7720C1F175
:100C1000C501B4010E94900A9B01AC01C701B60155
:100C20000E947D096B017C016EE2C8010E947C017B
:100C3000C80FD91F20E030E040E251E4C701B601FF
:100C40000E94470B4B015C010E94610A6B01E12C81
:100C5000F12C2AE0B701A601C8010E942A05C80F9D
:100C6000D91FC701B6010E94900A9B01AC01C501C2
:100C7000B4010E947D096B017C017A947110DACF76
:100C8000CE01DF91CF911F910F91FF90EF90DF90F8
:100C9000CF90BF90AF909F908F907F900895CF920C
:100CA000DF92EF92FF920F931F93CF93DF9300D0C9
:100CB00000D01F92CDB7DEB767FD57C07C01862FED
:100CC00090E0603260F0809725E0289FB001299F76
:100CD000700D112468597F4F45E050E00FC0FC01B2
:100CE0003796EE0FFF1FEE0DFF1D008111810115DC
:100CF000110559F445E050E068E670E0CE01019638
:100D00000E9474098E010F5F1F4F680185E0C80EB5
:100D1000D11CF80141918F0161E0C7010E94A30439
:100D20000C151D05B1F740E061E0C7010E94A30466
:100D3000F701848590E00696628570E00E94B90B09
:100D40008487811115C0258530E02F5F3F4F938543
:100D500069E3969F612D1124669570E06F5F7F4F68
:100D6000C9010E94B90B858703C080E090E002C0F2
:100D700081E090E00F900F900F900F900F90DF9117
:100D8000CF911F910F91FF90EF90DF90CF9008953A
:100D90001F920F920FB60F9211242F933F934F93F0
:100DA0005F936F937F938F939F93AF93BF93EF93D3
:100DB000FF9389E591E00E94F401FF91EF91BF91CB
:100DC000AF919F918F917F916F915F914F913F91E3
:100DD0002F910F900FBE0F901F9018951F920F929A
:100DE0000FB60F9211242F938F939F93EF93FF933E
:100DF000E0916901F0916A018081E0916F01F091C9
:100E0000700182FD12C09081809172018F5F8F739B
:100E100020917301821751F0E0917201F0E0E75ADE
:100E2000FE4F958F8093720101C08081FF91EF91F9
:100E30009F918F912F910F900FBE0F901F9018953B
:100E40001F920F920FB60F9211242F933F938F93FF
:100E50009F93AF93BF938091510190915201A091C4
:100E60005301B09154013091500123E0230F2D37ED
:100E700020F40196A11DB11D05C026E8230F02969E
:100E8000A11DB11D209350018093510190935201F7
:100E9000A0935301B0935401809155019091560154
:100EA000A0915701B09158010196A11DB11D8093E9
:100EB000550190935601A0935701B0935801BF91EB
:100EC000AF919F918F913F912F910F900FBE0F90F7
:100ED0001F9018951F920F920FB60F9211240F902A
:100EE0000FBE0F901F901895E9E5F1E01382128272
:100EF00088EE93E0A0E0B0E084839583A683B78377
:100F000088E091E09183808385EC90E095878487E9
:100F100084EC90E09787868780EC90E0918B808BC3
:100F200081EC90E0938B828B82EC90E0958B848BAC
:100F300086EC90E0978B868B118E128E138E148E1A
:100F4000E6EFF1E0138212828AE191E091838083DF
:100F500083E0848384E0858385E0868386E08783DD
:100F600087E080870895789484B5826084BD84B5D5
:100F7000816084BD85B5826085BD85B5816085BD94
:100F800080916E00816080936E001092810080914C
:100F900081008260809381008091810081608093D4
:100FA0008100809180008160809380008091B100F9
:100FB00084608093B1008091B00081608093B00024
:100FC00080917A00846080937A0080917A008260B8
:100FD00080937A0080917A00816080937A0080917A
:100FE0007A00806880937A001092C10084E5809333
:100FF000000280E3809301021092FF01109202022E
:101000001092030280E4E4E0F2E0DF011D928A9591
:10101000E9F761E08091FA010E940B0361E08091A1
:10102000FB010E940B0361E08091FC010E940B0315
:1010300061E08091FD010E940B0361E08091FE015F
:101040000E940B0361E08091FD010E94DC0261E0DF
:101050008091FE010E94DC0260E08091FD010E940F
:10106000DC0264E670E080E090E00E94A70361E0AB
:101070008091FD010E94DC0241E260E086EF91E098
:101080000E94A30443E160E086EF91E00E94A30484
:101090008091FF01813041F440EE60E086EF91E005
:1010A0000E94A30445E001C042EC60E086EF91E0BD
:1010B0000E94A30440E260E086EF91E00E94A30456
:1010C00049E060E086EF91E00E94A3040E94F204F0
:1010D00048E060E086EF91E00E94A3044CE060E00D
:1010E00086EF91E00E94A30464E670E080E090E067
:1010F0000E94A70340E860E086EF91E00E94A3040D
:1011000040E460E086EF91E00E94A304E091690171
:10111000F0916A0182E08083E0916501F0916601BF
:101120001082E0916701F09168018FEC808310924A
:101130007101E0916D01F0916E0186E08083E09194
:101140006B01F0916C01808180618083E0916B0183
:10115000F0916C01808188608083E0916B01F09157
:101160006C01808180688083E0916B01F0916C015B
:1011700080818F7D808361E088E00E940B0360E0C6
:1011800089E00E940B0382E10E9447038130924074
:101190006CF0C5EED3E00EE211E021E7422E2DE324
:1011A000522E22E6622E21E4722E0AC0CCE5D3E054
:1011B00006E311E0412C512C90EA692E91E4792E3E
:1011C0000E94F20480E00E94D104B80186EF91E011
:1011D0000E9415050E94B802019759F4B80189E5EB
:1011E00091E00E9415056EE371E089E591E00E94AF
:1011F0001505C12CD12C7601C39410E00C2D8FEF76
:101200008C0DFE0109954B015C019F77A3019201B2
:101210000E94420B18160CF411E0802F0E94D1049A
:1012200064E371E086EF91E00E9415052AE0B701C2
:10123000A60186EF91E00E942A0561E471E086EF45
:1012400091E00E94150522E0B501A40186EF91E02E
:101250000E9473056CE471E086EF91E00E94150531
:101260000E94B8020197C9F0EFEFCE1ADE0AEE0A2B
:10127000FE0AF5E0CF16D104E104F10409F0BECF77
:10128000612F88E00E94DC0268EE73E080E090E06D
:101290000E94A7030E94850276CF64E471E089E58D
:1012A00091E00E9415052AE0B701A60189E591E0C9
:1012B0000E942A0561E471E089E591E00E9415052C
:1012C00022E0B501A40189E591E00E9473056BE479
:1012D00071E089E591E00E9415056EE371E089E512
:1012E00091E00E941505C0CFFB01DC0102C0059012
:1012F0000D9241505040D8F708955058BB27AA2767
:101300000E9495090C94080B0E94FA0A38F00E947A
:10131000010B20F039F49F3F19F426F40C94F70ADE
:101320000EF4E095E7FB0C94F10AE92F0E94190BEB
:1013300058F3BA17620773078407950720F079F40A
:10134000A6F50C943B0B0EF4E0950B2EBA2FA02DB6
:101350000B01B90190010C01CA01A0011124FF2762
:10136000591B99F0593F50F4503E68F11A16F0405D
:10137000A22F232F342F4427585FF3CF469537955C
:101380002795A795F0405395C9F77EF41F16BA0B21
:10139000620B730B840BBAF09150A1F0FF0FBB1FCF
:1013A000661F771F881FC2F70EC0BA0F621F731F18
:1013B000841F48F4879577956795B795F7959E3F75
:1013C00008F0B0CF9395880F08F09927EE0F979506
:1013D000879508950E94CD0A08F481E008950E943F
:1013E000030A0C94080B0E94010B58F00E94FA0AA1
:1013F00040F029F45F3F29F00C94F10A51110C944C
:101400003C0B0C94F70A0E94190B68F39923B1F373
:10141000552391F3951B550BBB27AA27621773071A
:10142000840738F09F5F5F4F220F331F441FAA1FAE
:10143000A9F335D00E2E3AF0E0E832D0915050406A
:10144000E695001CCAF72BD0FE2F29D0660F771F18
:10145000881FBB1F261737074807AB07B0E809F0FE
:10146000BB0B802DBF01FF2793585F4F3AF09E3F83
:10147000510578F00C94F10A0C943C0B5F3FE4F3B7
:10148000983ED4F3869577956795B795F7959F5FC6
:10149000C9F7880F911D9695879597F90895E1E012
:1014A000660F771F881FBB1F621773078407BA0771
:1014B00020F0621B730B840BBA0BEE1F88F7E095CC
:1014C00008950E94210B88F09F5798F0B92F992713
:1014D000B751B0F0E1F0660F771F881F991F1AF01F
:1014E000BA95C9F714C0B13091F00E943B0BB1E03E
:1014F00008950C943B0B672F782F8827B85F39F03D
:10150000B93FCCF3869577956795B395D9F73EF4B7
:1015100090958095709561957F4F8F4F9F4F08955F
:10152000E89409C097FB3EF490958095709561957D
:101530007F4F8F4F9F4F9923A9F0F92F96E9BB2733
:101540009395F695879577956795B795F111F8CFAF
:10155000FAF4BB0F11F460FF1BC06F5F7F4F8F4F1A
:101560009F4F16C0882311F096E911C0772321F010
:101570009EE8872F762F05C0662371F096E8862FA8
:1015800070E060E02AF09A95660F771F881FDAF7FF
:10159000880F9695879597F90895990F0008550F2C
:1015A000AA0BE0E8FEEF16161706E807F907C0F0E9
:1015B00012161306E407F50798F0621B730B840BF1
:1015C000950B39F40A2661F0232B242B252B21F4CB
:1015D00008950A2609F4A140A6958FEF811D811D6B
:1015E000089597F99F6780E870E060E008959FEFA5
:1015F00080EC089500240A941616170618060906AA
:10160000089500240A941216130614060506089578
:10161000092E0394000C11F4882352F0BB0F40F400
:10162000BF2B11F460FF04C06F5F7F4F8F4F9F4F40
:10163000089557FD9058440F551F59F05F3F71F0C2
:101640004795880F97FB991F61F09F3F79F0879529
:101650000895121613061406551FF2CF4695F1DFB2
:1016600008C0161617061806991FF1CF8695710542
:10167000610508940895E894BB2766277727CB0176
:1016800097F908950E94CD0A08F48FEF08950E94FB
:101690005A0B0C94080B0E94FA0A38F00E94010BB6
:1016A00020F0952311F00C94F10A0C94F70A112400
:1016B0000C943C0B0E94190B70F3959FC1F3950F8E
:1016C00050E0551F629FF001729FBB27F00DB11DC6
:1016D000639FAA27F00DB11DAA1F649F6627B00D56
:1016E000A11D661F829F2227B00DA11D621F739F3F
:1016F000B00DA11D621F839FA00D611D221F749F4D
:101700003327A00D611D231F849F600D211D822F93
:10171000762F6A2F11249F5750409AF0F1F08823BA
:101720004AF0EE0FFF1FBB1F661F771F881F9150E7
:101730005040A9F79E3F510580F00C94F10A0C949B
:101740003C0B5F3FE4F3983ED4F38695779567951D
:10175000B795F795E7959F5FC1F7FE2B880F911D11
:101760009695879597F908950E94CD0A880B990B55
:10177000089597FB072E16F4009407D077FD09D043
:101780000E94EF0B07FC05D03EF4909581959F4F8A
:101790000895709561957F4F0895A1E21A2EAA1BB6
:1017A000BB1BFD010DC0AA1FBB1FEE1FFF1FA21711
:1017B000B307E407F50720F0A21BB30BE40BF50B0E
:1017C000661F771F881F991F1A9469F76095709597
:1017D000809590959B01AC01BD01CF010895AA1B96
:1017E000BB1B51E107C0AA1FBB1FA617B70710F00C
:1017F000A61BB70B881F991F5A95A9F7809590953E
:10180000BC01CD010895EE0FFF1F0590F491E02D6E
:10181000099481E090E0F8940C940E0CF894FFCFBA
:101820000E0F10110000000016028301AD016302CB
:10183000DE01BC01D001000000004F068301E2037D
:10184000E1036E616E00696E66006F7666004D6F33
:10185000646F204143004D6F646F204443000D0AC4
:0E186000003A200043616E616C2000205600AB
:00000001FF
